{
  "contractName": "RbTest",
  "abi": [
    {
      "constant": true,
      "inputs": [],
      "name": "r",
      "outputs": [
        {
          "name": "",
          "type": "uint256"
        }
      ],
      "payable": false,
      "stateMutability": "view",
      "type": "function"
    },
    {
      "constant": true,
      "inputs": [],
      "name": "getR",
      "outputs": [
        {
          "name": "",
          "type": "uint256"
        }
      ],
      "payable": false,
      "stateMutability": "view",
      "type": "function"
    }
  ],
  "bytecode": "0x608060405234801561001057600080fd5b5060d98061001f6000396000f3006080604052600436106049576000357c0100000000000000000000000000000000000000000000000000000000900463ffffffff1680636c8ae38c14604e578063f637b632146076575b600080fd5b348015605957600080fd5b506060609e565b6040518082815260200191505060405180910390f35b348015608157600080fd5b50608860a4565b6040518082815260200191505060405180910390f35b60005481565b600080549050905600a165627a7a723058205ac3bb517e669d7763c67ac5cf7966d8188fd13565520e3bec33ada0e358f3500029",
  "source": "pragma solidity ^0.4.24;\n\n//interface RandomBeacon {\n//    function getRandomByEpochId(uint256 epochId) external view returns(uint256);\n//    function getRandomByBlockTime(uint256 blockTime) external view returns(uint256);\n//    function getEpochId(uint256 blockTime) external view returns(uint256);\n//}\n\ncontract  RbTest{\n    uint256 public r;\n    function getR() public view returns(uint256){\n        return r;\n    }\n}\n\n//contract RbTest {\n////    uint256 public r;\n////    uint256 public r1;\n////    uint256 public r2;\n////    uint256 public epochID;\n//\n//    function getRandomByEpochId(uint256 epochId) public view returns(uint256) {\n////        uint256 p = 0;\n////        uint len = 32;\n////        uint ptr;\n////        bytes4 sig = bytes4(keccak256(\"getRandomByEpochId(uint256\"));\n////        assembly {\n////            mstore(0, 0x7f07b9ab00000000000000000000000000000000000000000000000000000000)\n////            calldatacopy(4, 4, 32)\n////            if not(iszero(staticcall(gas, 0x262, 0, 0x24, p, 0x20))) {\n////                p := mload(0)\n////            }\n////        }\n////        return p;\n////        assembly {\n////            let ptr := mload(0x40)\n////            calldatacopy(ptr, 0, calldatasize)\n////            let result := delegatecall(gas, 0x262, ptr, calldatasize, 0, 0)\n////            let size := returndatasize\n////            returndatacopy(ptr, 0, size)\n////\n////            switch result\n////            case 0 { revert(ptr, size) }\n////            default { return(ptr, size) }\n////        }\n//        return 0;\n//    }\n////    function getRandomByBlockTime(uint256 blockTime) public view returns(uint256) {\n////        // RandomBeacon rb = RandomBeacon(0x0000000000000000000000000000000000000262);\n////        // return rb.getRandomByBlockTime(blockTime);\n////        uint256 p = 0;\n////        assembly {\n////            mstore(0, 0xdf39683800000000000000000000000000000000000000000000000000000000)\n////            calldatacopy(4, 4, 32)\n////            if not(iszero(staticcall(gas, 0x262, 0, 0x24, p, 0x20))) {\n////                p := mload(0)\n////            }\n////        }\n////        return p;\n////    }\n////    function getEpochId(uint256 blockTime) public view returns(uint256) {\n////        // RandomBeacon rb = RandomBeacon(0x0000000000000000000000000000000000000262);\n////        // return rb.getEpochId(blockTime);\n////        uint256 p = 0;\n////        assembly {\n////            mstore(0, 0x5303548b00000000000000000000000000000000000000000000000000000000)\n////            calldatacopy(4, 4, 32)\n////            if not(iszero(staticcall(gas, 0x262, 0, 0x24, p, 0x20))) {\n////                p := mload(0)\n////            }\n////        }\n////        return p;\n////    }\n////\n////    function callGetRandomByEpochId(uint256 e) public view returns(uint256) {\n////        return getRandomByEpochId(e);\n////    }\n////\n////    function sendRandomByBlockTime(uint256 blockTime) public {\n////        r = getRandomByBlockTime(blockTime);\n////        epochID = getEpochId(blockTime);\n////        r1 = callGetRandomByEpochId(epochID);\n////    }\n//}\n\n",
  "sourcePath": "/home/jacob/wanchain/rbtest/contracts/RbTest.sol",
  "compiler": {
    "name": "solc",
    "version": "0.4.25+commit.59dbf8f1.Emscripten.clang"
  },
  "schemaVersion": "3.0.19",
  "updatedAt": "2019-12-11T12:44:36.408Z",
  "networkType": "ethereum",
  "devdoc": {
    "methods": {}
  },
  "userdoc": {
    "methods": {}
  }
}